{
  "hash": "2dc74e01317c32509dd530ad466f1ec11582d95d7dba44fe069ca66c9f330464",
  "confirmations": 773438,
  "strippedsize": 852,
  "size": 852,
  "weight": 3408,
  "height": 40181,
  "version": 536870912,
  "versionHex": "20000000",
  "merkleroot": "9ea68a8a9648864b049079c9b151f411e002a5727b982285fd1f6319d58e93d5",
  "tx": [
    {
      "txid": "f78011d83798ba5eb928bd6e79a35cfd8a03d3657044a32c24a1f8f99d5f0125",
      "hash": "f78011d83798ba5eb928bd6e79a35cfd8a03d3657044a32c24a1f8f99d5f0125",
      "version": 1,
      "size": 66,
      "vsize": 66,
      "weight": 264,
      "locktime": 0,
      "vin": [
        {
          "coinbase": "03f59c000101",
          "sequence": 4294967295
        }
      ],
      "vout": [
        {
          "value": 0.00000000,
          "n": 0,
          "scriptPubKey": {
            "asm": "",
            "hex": "",
            "type": "nonstandard"
          }
        }
      ],
      "hex": "01000000010000000000000000000000000000000000000000000000000000000000000000ffffffff0603f59c000101ffffffff0100000000000000000000000000"
    },
    {
      "txid": "3d488d9381b09954b5a9606b365ab0aaeca6aa750bdba79436e416ad6702226a",
      "hash": "3d488d9381b09954b5a9606b365ab0aaeca6aa750bdba79436e416ad6702226a",
      "version": 1,
      "size": 234,
      "vsize": 234,
      "weight": 936,
      "locktime": 0,
      "vin": [
        {
          "txid": "a3afec89801dd45f666339a96d2862e75392c68e804b35297239c5372ce408ae",
          "vout": 1,
          "scriptSig": {
            "asm": "3044022042777ded890d8ad684e807d33036b2477700d89837b2a230908b71f16f159657022054ce173bc13ffef44628b7ad52250c69db5d772183190d1e1968d1df8914c762[ALL] 03e85efa8cc86226833b2059c2af17d79ef8235359b14dd36c8000eb72bf09eba2",
            "hex": "473044022042777ded890d8ad684e807d33036b2477700d89837b2a230908b71f16f159657022054ce173bc13ffef44628b7ad52250c69db5d772183190d1e1968d1df8914c762012103e85efa8cc86226833b2059c2af17d79ef8235359b14dd36c8000eb72bf09eba2"
          },
          "sequence": 4294967295
        }
      ],
      "vout": [
        {
          "value": 0.00000000,
          "n": 0,
          "scriptPubKey": {
            "asm": "",
            "hex": "",
            "type": "nonstandard"
          }
        },
        {
          "value": 1340.00000000,
          "n": 1,
          "scriptPubKey": {
            "asm": "OP_DUP OP_HASH160 750e6be359f1a26f6b16b0b3957e8f8270eb46f2 OP_EQUALVERIFY OP_CHECKSIG",
            "hex": "76a914750e6be359f1a26f6b16b0b3957e8f8270eb46f288ac",
            "reqSigs": 1,
            "type": "pubkeyhash",
            "addresses": [
              "XmMnAiXCHcVhSTfdKHYNsaZZytSnKH9reb"
            ]
          }
        },
        {
          "value": 22.50000000,
          "n": 2,
          "scriptPubKey": {
            "asm": "OP_DUP OP_HASH160 a5ba7dc6c242607ef094c79ccfb8bdaddf831e97 OP_EQUALVERIFY OP_CHECKSIG",
            "hex": "76a914a5ba7dc6c242607ef094c79ccfb8bdaddf831e9788ac",
            "reqSigs": 1,
            "type": "pubkeyhash",
            "addresses": [
              "Xqo8jYoaMvfeE28Zux69Q3zgzT9aDbsqnG"
            ]
          }
        }
      ],
      "hex": "0100000001ae08e42c37c5397229354b808ec69253e762286da93963665fd41d8089ecafa3010000006a473044022042777ded890d8ad684e807d33036b2477700d89837b2a230908b71f16f159657022054ce173bc13ffef44628b7ad52250c69db5d772183190d1e1968d1df8914c762012103e85efa8cc86226833b2059c2af17d79ef8235359b14dd36c8000eb72bf09eba2ffffffff0300000000000000000000bc05331f0000001976a914750e6be359f1a26f6b16b0b3957e8f8270eb46f288ac80461c86000000001976a914a5ba7dc6c242607ef094c79ccfb8bdaddf831e9788ac00000000"
    },
    {
      "txid": "356f3fc21f4f55a6aa0cac21ceab47d79dc8a95b08c234c3b6721dc769900056",
      "hash": "356f3fc21f4f55a6aa0cac21ceab47d79dc8a95b08c234c3b6721dc769900056",
      "version": 1,
      "size": 373,
      "vsize": 373,
      "weight": 1492,
      "locktime": 40158,
      "vin": [
        {
          "txid": "f8b83a6ccf1068155f5a4abfb15f548cffd164d44479e6f5a3647b43a5b2876e",
          "vout": 2,
          "scriptSig": {
            "asm": "304402200f99576dd834945a9f2b9c61ad742d9a424f701db54d1e4aeb85ee207bf0180802200a1a85d2113e5875f657f1f29afca350327a384b7510a6b2a21f6e63298882ac[ALL] 03e85efa8cc86226833b2059c2af17d79ef8235359b14dd36c8000eb72bf09eba2",
            "hex": "47304402200f99576dd834945a9f2b9c61ad742d9a424f701db54d1e4aeb85ee207bf0180802200a1a85d2113e5875f657f1f29afca350327a384b7510a6b2a21f6e63298882ac012103e85efa8cc86226833b2059c2af17d79ef8235359b14dd36c8000eb72bf09eba2"
          },
          "sequence": 4294967294
        }
      ],
      "vout": [
        {
          "value": 0.00000000,
          "n": 0,
          "scriptPubKey": {
            "asm": "OP_RETURN 586a55587938507a55464d78534c37594135767866574a587365746b354d5638676f 58794a4338786e664672484e634d696e68366778755052595939484361593944416f 99 1f60a6a385a4e5163ffef65dd873f17452bb0d9f89da701ffcc5a0f72287273c0571485c29123fef880d2d8169cfdb884bf95a18a0b36461517acda390ce4cf441",
            "hex": "6a22586a55587938507a55464d78534c37594135767866574a587365746b354d5638676f2258794a4338786e664672484e634d696e68366778755052595939484361593944416f0163411f60a6a385a4e5163ffef65dd873f17452bb0d9f89da701ffcc5a0f72287273c0571485c29123fef880d2d8169cfdb884bf95a18a0b36461517acda390ce4cf441",
            "type": "nulldata"
          }
        },
        {
          "value": 1.00000000,
          "n": 1,
          "scriptPubKey": {
            "asm": "OP_DUP OP_HASH160 60653a6bcde4494bf67de03338d25ed9c576dd49 OP_EQUALVERIFY OP_CHECKSIG",
            "hex": "76a91460653a6bcde4494bf67de03338d25ed9c576dd4988ac",
            "reqSigs": 1,
            "type": "pubkeyhash",
            "addresses": [
              "XjUXy8PzUFMxSL7YA5vxfWJXsetk5MV8go"
            ]
          }
        },
        {
          "value": 1249.00000000,
          "n": 2,
          "scriptPubKey": {
            "asm": "OP_DUP OP_HASH160 e92011c71d996b43432eff60d98bea648ed07d8e OP_EQUALVERIFY OP_CHECKSIG",
            "hex": "76a914e92011c71d996b43432eff60d98bea648ed07d8e88ac",
            "reqSigs": 1,
            "type": "pubkeyhash",
            "addresses": [
              "XwwVhB3eUS7j8cB9frxQ6ed2KeFubRaebY"
            ]
          }
        }
      ],
      "hex": "01000000016e87b2a5437b64a3f5e67944d464d1ff8c545fb1bf4a5a5f156810cf6c3ab8f8020000006a47304402200f99576dd834945a9f2b9c61ad742d9a424f701db54d1e4aeb85ee207bf0180802200a1a85d2113e5875f657f1f29afca350327a384b7510a6b2a21f6e63298882ac012103e85efa8cc86226833b2059c2af17d79ef8235359b14dd36c8000eb72bf09eba2feffffff0300000000000000008b6a22586a55587938507a55464d78534c37594135767866574a587365746b354d5638676f2258794a4338786e664672484e634d696e68366778755052595939484361593944416f0163411f60a6a385a4e5163ffef65dd873f17452bb0d9f89da701ffcc5a0f72287273c0571485c29123fef880d2d8169cfdb884bf95a18a0b36461517acda390ce4cf44100e1f505000000001976a91460653a6bcde4494bf67de03338d25ed9c576dd4988ac00c19e141d0000001976a914e92011c71d996b43432eff60d98bea648ed07d8e88acde9c0000"
    }
  ],
  "time": 1522836382,
  "mediantime": 1522836253,
  "nonce": 0,
  "bits": "1c036834",
  "difficulty": 75.13731391411834,
  "chainwork": "0000000000000000000000000000000000000000000000000012579e001aa440",
  "previousblockhash": "9d9816b341307d43aab6d1049ca51078b4656a3e31bd3abe7956b9df18f857e9",
  "nextblockhash": "7a72adbecd80c28eeda2718db41f1fbfb483678f559b4007cd9acd001aa79305"
}
